:100000000C942A000C943C000C943C000C943C0092
:100010000C943C000C943C000C943C000C943C0070
:100020000C943C000C943C000C943C000C943C0060
:100030000C943C000C943C000C943C000C943C0050
:100040000C943C000C943C000C943C000C943C0040
:100050000C943C0011241FBECFE5D4E0DEBFCDBF21
:1000600020E0A0E6B0E001C01D92A636B207E1F79D
:100070000E9430010C9459010C94000090E1899F7A
:100080009001112482958F70822B089528E030E032
:1000900002C0220F331F8A95E2F725BB87EE93E05B
:1000A0000197F1F700C0000083B38F700895CF93DC
:1000B000DF9381E090E00E9446000E943E00C0E68F
:1000C000D0E0898382E090E00E9446009981890F08
:1000D000898383E090E00E9446000E943E0088836E
:1000E00084E090E00E9446009881890F888315BAC9
:1000F000DF91CF9108950F931F93CF93DF930E94C9
:100100005700C0E6D0E0088119818FE295E701979A
:10011000F1F700C000000E9457008881902F9823BB
:1001200029812123E3E6F0E08081318190832183DE
:10013000809589238883932F909529232983811182
:1001400005C0222331F081E090E005C081E090E01D
:1001500002C080E090E0DF91CF911F910F91089550
:100160008091600080FD24C081FD24C082FD24C0F8
:1001700083FD24C084FD24C085FD24C086FD24C0E9
:10018000882324F19091610090FD22C091FD22C04E
:1001900092FD22C093FD22C094FD22C095FD22C095
:1001A000892F807496FD20C09923FCF481E4089582
:1001B0008AE2089580E3089583E2089584E408952F
:1001C00087E3089588E3089589E3089583E4089513
:1001D00084E3089585E3089586E3089582E408950D
:1001E00081E3089582E3089583E30895CF938FEF29
:1001F00088BBC1E009C00E947B008FED9EE20197A1
:10020000F1F700C00000CF5FC13AA8F318BACF9150
:100210000895CF93DF93D1E01EC08FEF88BBC1E07C
:1002200009C00E947B008FED9EE20197F1F700C0AC
:100230000000CF5FC531A8F318BAC1E009C00E9421
:100240007B008FED9EE20197F1F700C00000CF5FC9
:10025000C531A8F3DF5FD53000F3DF91CF9108956A
:100260008FEF87BB80EF84BBE3E6F0E01082118262
:1002700018BA0E947B00892BE1F30E94B0008093A2
:1002800062000E947B00892BE1F30E94B000809302
:1002900065000E947B0080916200843321F480918C
:1002A0006500883319F00E940901DECF0E94F60034
:0602B000DBCFF894FFCF44
:00000001FF
